{
  "_format": "hh-sol-artifact-1",
  "contractName": "DrugTraceability",
  "sourceName": "contracts/DrugTraceability.sol",
  "abi": [
    {
      "anonymous": false,
      "inputs": [
        {
          "indexed": true,
          "internalType": "uint256",
          "name": "drugId",
          "type": "uint256"
        },
        {
          "indexed": false,
          "internalType": "string",
          "name": "name",
          "type": "string"
        },
        {
          "indexed": false,
          "internalType": "address",
          "name": "manufacturer",
          "type": "address"
        }
      ],
      "name": "DrugManufactured",
      "type": "event"
    },
    {
      "anonymous": false,
      "inputs": [
        {
          "indexed": true,
          "internalType": "uint256",
          "name": "drugId",
          "type": "uint256"
        },
        {
          "indexed": false,
          "internalType": "address",
          "name": "from",
          "type": "address"
        },
        {
          "indexed": false,
          "internalType": "address",
          "name": "to",
          "type": "address"
        }
      ],
      "name": "DrugTransferred",
      "type": "event"
    },
    {
      "inputs": [],
      "name": "drugCounter",
      "outputs": [
        {
          "internalType": "uint256",
          "name": "",
          "type": "uint256"
        }
      ],
      "stateMutability": "view",
      "type": "function"
    },
    {
      "inputs": [
        {
          "internalType": "uint256",
          "name": "",
          "type": "uint256"
        }
      ],
      "name": "drugs",
      "outputs": [
        {
          "internalType": "uint256",
          "name": "id",
          "type": "uint256"
        },
        {
          "internalType": "string",
          "name": "name",
          "type": "string"
        },
        {
          "internalType": "string",
          "name": "batchNumber",
          "type": "string"
        },
        {
          "internalType": "uint256",
          "name": "manufactureDate",
          "type": "uint256"
        },
        {
          "internalType": "address",
          "name": "manufacturer",
          "type": "address"
        },
        {
          "internalType": "address",
          "name": "currentOwner",
          "type": "address"
        },
        {
          "internalType": "bool",
          "name": "isAuthentic",
          "type": "bool"
        }
      ],
      "stateMutability": "view",
      "type": "function"
    },
    {
      "inputs": [
        {
          "internalType": "uint256",
          "name": "_drugId",
          "type": "uint256"
        }
      ],
      "name": "getSupplyChain",
      "outputs": [
        {
          "internalType": "address[]",
          "name": "",
          "type": "address[]"
        }
      ],
      "stateMutability": "view",
      "type": "function"
    },
    {
      "inputs": [
        {
          "internalType": "string",
          "name": "_name",
          "type": "string"
        },
        {
          "internalType": "string",
          "name": "_batchNumber",
          "type": "string"
        }
      ],
      "name": "manufactureDrug",
      "outputs": [
        {
          "internalType": "uint256",
          "name": "",
          "type": "uint256"
        }
      ],
      "stateMutability": "nonpayable",
      "type": "function"
    },
    {
      "inputs": [
        {
          "internalType": "uint256",
          "name": "",
          "type": "uint256"
        },
        {
          "internalType": "uint256",
          "name": "",
          "type": "uint256"
        }
      ],
      "name": "supplyChain",
      "outputs": [
        {
          "internalType": "address",
          "name": "",
          "type": "address"
        }
      ],
      "stateMutability": "view",
      "type": "function"
    },
    {
      "inputs": [
        {
          "internalType": "uint256",
          "name": "_drugId",
          "type": "uint256"
        },
        {
          "internalType": "address",
          "name": "_to",
          "type": "address"
        }
      ],
      "name": "transferDrug",
      "outputs": [],
      "stateMutability": "nonpayable",
      "type": "function"
    },
    {
      "inputs": [
        {
          "internalType": "uint256",
          "name": "_drugId",
          "type": "uint256"
        }
      ],
      "name": "verifyDrug",
      "outputs": [
        {
          "internalType": "bool",
          "name": "",
          "type": "bool"
        }
      ],
      "stateMutability": "view",
      "type": "function"
    }
  ],
  "bytecode": "0x6080604052348015600f57600080fd5b506112ff8061001f6000396000f3fe608060405234801561001057600080fd5b506004361061007d5760003560e01c8063641db2071161005b578063641db207146100fe578063e7e6c3441461011c578063f9419f0e1461014c578063fca5e61e1461017c5761007d565b8063207b71d91461008257806320fe1b361461009e578063412b46e4146100ce575b600080fd5b61009c60048036038101906100979190610972565b6101b2565b005b6100b860048036038101906100b391906109b2565b6103ca565b6040516100c59190610a9d565b60405180910390f35b6100e860048036038101906100e391906109b2565b61046b565b6040516100f59190610ada565b60405180910390f35b610106610497565b6040516101139190610b04565b60405180910390f35b61013660048036038101906101319190610b1f565b61049d565b6040516101439190610b6e565b60405180910390f35b61016660048036038101906101619190610ccf565b6104eb565b6040516101739190610b04565b60405180910390f35b610196600480360381019061019191906109b2565b61072b565b6040516101a99796959493929190610dc6565b60405180910390f35b3373ffffffffffffffffffffffffffffffffffffffff1660008084815260200190815260200160002060050160009054906101000a900473ffffffffffffffffffffffffffffffffffffffff1673ffffffffffffffffffffffffffffffffffffffff1614610255576040517f08c379a000000000000000000000000000000000000000000000000000000000815260040161024c90610e8f565b60405180910390fd5b600073ffffffffffffffffffffffffffffffffffffffff168173ffffffffffffffffffffffffffffffffffffffff16036102c4576040517f08c379a00000000000000000000000000000000000000000000000000000000081526004016102bb90610efb565b60405180910390fd5b8060008084815260200190815260200160002060050160006101000a81548173ffffffffffffffffffffffffffffffffffffffff021916908373ffffffffffffffffffffffffffffffffffffffff16021790555060016000838152602001908152602001600020819080600181540180825580915050600190039060005260206000200160009091909190916101000a81548173ffffffffffffffffffffffffffffffffffffffff021916908373ffffffffffffffffffffffffffffffffffffffff160217905550817f6dda5e3ecad7a4c94f91aa557b4624d5c689836632f15175473ab73058c8894933836040516103be929190610f1b565b60405180910390a25050565b60606001600083815260200190815260200160002080548060200260200160405190810160405280929190818152602001828054801561045f57602002820191906000526020600020905b8160009054906101000a900473ffffffffffffffffffffffffffffffffffffffff1673ffffffffffffffffffffffffffffffffffffffff1681526020019060010190808311610415575b50505050509050919050565b600080600083815260200190815260200160002060050160149054906101000a900460ff169050919050565b60025481565b600160205281600052604060002081815481106104b957600080fd5b906000526020600020016000915091509054906101000a900473ffffffffffffffffffffffffffffffffffffffff1681565b60006002600081548092919061050090610f73565b91905055506040518060e0016040528060025481526020018481526020018381526020014281526020013373ffffffffffffffffffffffffffffffffffffffff1681526020013373ffffffffffffffffffffffffffffffffffffffff16815260200160011515815250600080600254815260200190815260200160002060008201518160000155602082015181600101908161059c91906111c7565b5060408201518160020190816105b291906111c7565b506060820151816003015560808201518160040160006101000a81548173ffffffffffffffffffffffffffffffffffffffff021916908373ffffffffffffffffffffffffffffffffffffffff16021790555060a08201518160050160006101000a81548173ffffffffffffffffffffffffffffffffffffffff021916908373ffffffffffffffffffffffffffffffffffffffff16021790555060c08201518160050160146101000a81548160ff021916908315150217905550905050600160006002548152602001908152602001600020339080600181540180825580915050600190039060005260206000200160009091909190916101000a81548173ffffffffffffffffffffffffffffffffffffffff021916908373ffffffffffffffffffffffffffffffffffffffff1602179055506002547f9f0a012c44422b997bad759f6cd072628512ab4b7f0678fd578c9417409b8ce48433604051610718929190611299565b60405180910390a2600254905092915050565b600060205280600052604060002060009150905080600001549080600101805461075490610fea565b80601f016020809104026020016040519081016040528092919081815260200182805461078090610fea565b80156107cd5780601f106107a2576101008083540402835291602001916107cd565b820191906000526020600020905b8154815290600101906020018083116107b057829003601f168201915b5050505050908060020180546107e290610fea565b80601f016020809104026020016040519081016040528092919081815260200182805461080e90610fea565b801561085b5780601f106108305761010080835404028352916020019161085b565b820191906000526020600020905b81548152906001019060200180831161083e57829003601f168201915b5050505050908060030154908060040160009054906101000a900473ffffffffffffffffffffffffffffffffffffffff16908060050160009054906101000a900473ffffffffffffffffffffffffffffffffffffffff16908060050160149054906101000a900460ff16905087565b6000604051905090565b600080fd5b600080fd5b6000819050919050565b6108f1816108de565b81146108fc57600080fd5b50565b60008135905061090e816108e8565b92915050565b600073ffffffffffffffffffffffffffffffffffffffff82169050919050565b600061093f82610914565b9050919050565b61094f81610934565b811461095a57600080fd5b50565b60008135905061096c81610946565b92915050565b60008060408385031215610989576109886108d4565b5b6000610997858286016108ff565b92505060206109a88582860161095d565b9150509250929050565b6000602082840312156109c8576109c76108d4565b5b60006109d6848285016108ff565b91505092915050565b600081519050919050565b600082825260208201905092915050565b6000819050602082019050919050565b610a1481610934565b82525050565b6000610a268383610a0b565b60208301905092915050565b6000602082019050919050565b6000610a4a826109df565b610a5481856109ea565b9350610a5f836109fb565b8060005b83811015610a90578151610a778882610a1a565b9750610a8283610a32565b925050600181019050610a63565b5085935050505092915050565b60006020820190508181036000830152610ab78184610a3f565b905092915050565b60008115159050919050565b610ad481610abf565b82525050565b6000602082019050610aef6000830184610acb565b92915050565b610afe816108de565b82525050565b6000602082019050610b196000830184610af5565b92915050565b60008060408385031215610b3657610b356108d4565b5b6000610b44858286016108ff565b9250506020610b55858286016108ff565b9150509250929050565b610b6881610934565b82525050565b6000602082019050610b836000830184610b5f565b92915050565b600080fd5b600080fd5b6000601f19601f8301169050919050565b7f4e487b7100000000000000000000000000000000000000000000000000000000600052604160045260246000fd5b610bdc82610b93565b810181811067ffffffffffffffff82111715610bfb57610bfa610ba4565b5b80604052505050565b6000610c0e6108ca565b9050610c1a8282610bd3565b919050565b600067ffffffffffffffff821115610c3a57610c39610ba4565b5b610c4382610b93565b9050602081019050919050565b82818337600083830152505050565b6000610c72610c6d84610c1f565b610c04565b905082815260208101848484011115610c8e57610c8d610b8e565b5b610c99848285610c50565b509392505050565b600082601f830112610cb657610cb5610b89565b5b8135610cc6848260208601610c5f565b91505092915050565b60008060408385031215610ce657610ce56108d4565b5b600083013567ffffffffffffffff811115610d0457610d036108d9565b5b610d1085828601610ca1565b925050602083013567ffffffffffffffff811115610d3157610d306108d9565b5b610d3d85828601610ca1565b9150509250929050565b600081519050919050565b600082825260208201905092915050565b60005b83811015610d81578082015181840152602081019050610d66565b60008484015250505050565b6000610d9882610d47565b610da28185610d52565b9350610db2818560208601610d63565b610dbb81610b93565b840191505092915050565b600060e082019050610ddb600083018a610af5565b8181036020830152610ded8189610d8d565b90508181036040830152610e018188610d8d565b9050610e106060830187610af5565b610e1d6080830186610b5f565b610e2a60a0830185610b5f565b610e3760c0830184610acb565b98975050505050505050565b7f4e6f7420746865206f776e657200000000000000000000000000000000000000600082015250565b6000610e79600d83610d52565b9150610e8482610e43565b602082019050919050565b60006020820190508181036000830152610ea881610e6c565b9050919050565b7f496e76616c696420616464726573730000000000000000000000000000000000600082015250565b6000610ee5600f83610d52565b9150610ef082610eaf565b602082019050919050565b60006020820190508181036000830152610f1481610ed8565b9050919050565b6000604082019050610f306000830185610b5f565b610f3d6020830184610b5f565b9392505050565b7f4e487b7100000000000000000000000000000000000000000000000000000000600052601160045260246000fd5b6000610f7e826108de565b91507fffffffffffffffffffffffffffffffffffffffffffffffffffffffffffffffff8203610fb057610faf610f44565b5b600182019050919050565b7f4e487b7100000000000000000000000000000000000000000000000000000000600052602260045260246000fd5b6000600282049050600182168061100257607f821691505b60208210810361101557611014610fbb565b5b50919050565b60008190508160005260206000209050919050565b60006020601f8301049050919050565b600082821b905092915050565b60006008830261107d7fffffffffffffffffffffffffffffffffffffffffffffffffffffffffffffffff82611040565b6110878683611040565b95508019841693508086168417925050509392505050565b6000819050919050565b60006110c46110bf6110ba846108de565b61109f565b6108de565b9050919050565b6000819050919050565b6110de836110a9565b6110f26110ea826110cb565b84845461104d565b825550505050565b600090565b6111076110fa565b6111128184846110d5565b505050565b5b818110156111365761112b6000826110ff565b600181019050611118565b5050565b601f82111561117b5761114c8161101b565b61115584611030565b81016020851015611164578190505b61117861117085611030565b830182611117565b50505b505050565b600082821c905092915050565b600061119e60001984600802611180565b1980831691505092915050565b60006111b7838361118d565b9150826002028217905092915050565b6111d082610d47565b67ffffffffffffffff8111156111e9576111e8610ba4565b5b6111f38254610fea565b6111fe82828561113a565b600060209050601f831160018114611231576000841561121f578287015190505b61122985826111ab565b865550611291565b601f19841661123f8661101b565b60005b8281101561126757848901518255600182019150602085019450602081019050611242565b868310156112845784890151611280601f89168261118d565b8355505b6001600288020188555050505b505050505050565b600060408201905081810360008301526112b38185610d8d565b90506112c26020830184610b5f565b939250505056fea2646970667358221220062df1755f6a0bac922b69440734859c62371c8ba19e4ca179773dbd1e28edae64736f6c634300081c0033",
  "linkReferences": {},
  "deployedLinkReferences": {}
}